{
  "_format": "hh-sol-artifact-1",
  "contractName": "Airdrop",
  "sourceName": "contracts/Airdrop.sol",
  "abi": [
    {
      "inputs": [
        {
          "internalType": "address",
          "name": "registeredSigner",
          "type": "address"
        },
        {
          "components": [
            {
              "internalType": "string[]",
              "name": "ipfsIds",
              "type": "string[]"
            }
          ],
          "internalType": "struct LibKeeper.Conditions",
          "name": "conditions",
          "type": "tuple"
        }
      ],
      "stateMutability": "nonpayable",
      "type": "constructor"
    },
    {
      "inputs": [
        {
          "components": [
            {
              "internalType": "address",
              "name": "payee",
              "type": "address"
            },
            {
              "components": [
                {
                  "internalType": "string[]",
                  "name": "ipfsIds",
                  "type": "string[]"
                }
              ],
              "internalType": "struct LibKeeper.Conditions",
              "name": "conditions",
              "type": "tuple"
            },
            {
              "components": [
                {
                  "internalType": "address",
                  "name": "signer",
                  "type": "address"
                },
                {
                  "internalType": "bytes",
                  "name": "signature",
                  "type": "bytes"
                }
              ],
              "internalType": "struct LibKeeper.Signature",
              "name": "signature",
              "type": "tuple"
            }
          ],
          "internalType": "struct Airdrop.ClaimArg",
          "name": "arg",
          "type": "tuple"
        }
      ],
      "name": "claim",
      "outputs": [],
      "stateMutability": "nonpayable",
      "type": "function"
    }
  ],
  "bytecode": "0x60806040523480156200001157600080fd5b506040516200291338038062002913833981810160405281019062000037919062000642565b8181816000806101000a81548173ffffffffffffffffffffffffffffffffffffffff021916908373ffffffffffffffffffffffffffffffffffffffff16021790555080600160008201518160000190805190602001906200009a929190620001e7565b50905050505030604051620000af9062000247565b620000bb9190620006b9565b604051809103906000f080158015620000d8573d6000803e3d6000fd5b50600360006101000a81548173ffffffffffffffffffffffffffffffffffffffff021916908373ffffffffffffffffffffffffffffffffffffffff160217905550600360009054906101000a900473ffffffffffffffffffffffffffffffffffffffff1673ffffffffffffffffffffffffffffffffffffffff1663095ea7b3307fffffffffffffffffffffffffffffffffffffffffffffffffffffffffffffffff6040518363ffffffff1660e01b815260040162000198929190620006f1565b6020604051808303816000875af1158015620001b8573d6000803e3d6000fd5b505050506040513d601f19601f82011682018060405250810190620001de91906200075b565b50505062000ab5565b82805482825590600052602060002090810192821562000234579160200282015b8281111562000233578251829081620002229190620009ce565b509160200191906001019062000208565b5b50905062000243919062000255565b5090565b6119b28062000f6183390190565b5b808211156200027957600081816200026f91906200027d565b5060010162000256565b5090565b5080546200028b90620007c7565b6000825580601f106200029f5750620002c0565b601f016020900490600052602060002090810190620002bf9190620002c3565b5b50565b5b80821115620002de576000816000905550600101620002c4565b5090565b6000604051905090565b600080fd5b600080fd5b600073ffffffffffffffffffffffffffffffffffffffff82169050919050565b60006200032382620002f6565b9050919050565b620003358162000316565b81146200034157600080fd5b50565b60008151905062000355816200032a565b92915050565b600080fd5b6000601f19601f8301169050919050565b7f4e487b7100000000000000000000000000000000000000000000000000000000600052604160045260246000fd5b620003ab8262000360565b810181811067ffffffffffffffff82111715620003cd57620003cc62000371565b5b80604052505050565b6000620003e2620002e2565b9050620003f08282620003a0565b919050565b600080fd5b600080fd5b600067ffffffffffffffff8211156200041d576200041c62000371565b5b602082029050602081019050919050565b600080fd5b600080fd5b600067ffffffffffffffff82111562000456576200045562000371565b5b620004618262000360565b9050602081019050919050565b60005b838110156200048e57808201518184015260208101905062000471565b60008484015250505050565b6000620004b1620004ab8462000438565b620003d6565b905082815260208101848484011115620004d057620004cf62000433565b5b620004dd8482856200046e565b509392505050565b600082601f830112620004fd57620004fc620003fa565b5b81516200050f8482602086016200049a565b91505092915050565b60006200052f6200052984620003ff565b620003d6565b905080838252602082019050602084028301858111156200055557620005546200042e565b5b835b81811015620005a357805167ffffffffffffffff8111156200057e576200057d620003fa565b5b8086016200058d8982620004e5565b8552602085019450505060208101905062000557565b5050509392505050565b600082601f830112620005c557620005c4620003fa565b5b8151620005d784826020860162000518565b91505092915050565b600060208284031215620005f957620005f86200035b565b5b620006056020620003d6565b9050600082015167ffffffffffffffff811115620006285762000627620003f5565b5b6200063684828501620005ad565b60008301525092915050565b600080604083850312156200065c576200065b620002ec565b5b60006200066c8582860162000344565b925050602083015167ffffffffffffffff81111562000690576200068f620002f1565b5b6200069e85828601620005e0565b9150509250929050565b620006b38162000316565b82525050565b6000602082019050620006d06000830184620006a8565b92915050565b6000819050919050565b620006eb81620006d6565b82525050565b6000604082019050620007086000830185620006a8565b620007176020830184620006e0565b9392505050565b60008115159050919050565b62000735816200071e565b81146200074157600080fd5b50565b60008151905062000755816200072a565b92915050565b600060208284031215620007745762000773620002ec565b5b6000620007848482850162000744565b91505092915050565b600081519050919050565b7f4e487b7100000000000000000000000000000000000000000000000000000000600052602260045260246000fd5b60006002820490506001821680620007e057607f821691505b602082108103620007f657620007f562000798565b5b50919050565b60008190508160005260206000209050919050565b60006020601f8301049050919050565b600082821b905092915050565b600060088302620008607fffffffffffffffffffffffffffffffffffffffffffffffffffffffffffffffff8262000821565b6200086c868362000821565b95508019841693508086168417925050509392505050565b6000819050919050565b6000620008af620008a9620008a384620006d6565b62000884565b620006d6565b9050919050565b6000819050919050565b620008cb836200088e565b620008e3620008da82620008b6565b8484546200082e565b825550505050565b600090565b620008fa620008eb565b62000907818484620008c0565b505050565b5b818110156200092f5762000923600082620008f0565b6001810190506200090d565b5050565b601f8211156200097e576200094881620007fc565b620009538462000811565b8101602085101562000963578190505b6200097b620009728562000811565b8301826200090c565b50505b505050565b600082821c905092915050565b6000620009a36000198460080262000983565b1980831691505092915050565b6000620009be838362000990565b9150826002028217905092915050565b620009d9826200078d565b67ffffffffffffffff811115620009f557620009f462000371565b5b62000a018254620007c7565b62000a0e82828562000933565b600060209050601f83116001811462000a46576000841562000a31578287015190505b62000a3d8582620009b0565b86555062000aad565b601f19841662000a5686620007fc565b60005b8281101562000a805784890151825560018201915060208501945060208101905062000a59565b8683101562000aa0578489015162000a9c601f89168262000990565b8355505b6001600288020188555050505b505050505050565b61049c8062000ac56000396000f3fe608060405234801561001057600080fd5b506004361061002b5760003560e01c80639b3ba81914610030575b600080fd5b61004a600480360381019061004591906101ee565b61004c565b005b6100558161010e565b600360009054906101000a900473ffffffffffffffffffffffffffffffffffffffff1673ffffffffffffffffffffffffffffffffffffffff166323b872dd308360000160208101906100a79190610295565b60016040518463ffffffff1660e01b81526004016100c793929190610320565b6020604051808303816000875af11580156100e6573d6000803e3d6000fd5b505050506040513d601f19601f8201168201806040525081019061010a919061038f565b5050565b60008054906101000a900473ffffffffffffffffffffffffffffffffffffffff1673ffffffffffffffffffffffffffffffffffffffff1681806040019061015591906103c1565b60000160208101906101679190610295565b73ffffffffffffffffffffffffffffffffffffffff16146101bd576040517f08c379a00000000000000000000000000000000000000000000000000000000081526004016101b490610446565b60405180910390fd5b50565b600080fd5b600080fd5b600080fd5b6000606082840312156101e5576101e46101ca565b5b81905092915050565b600060208284031215610204576102036101c0565b5b600082013567ffffffffffffffff811115610222576102216101c5565b5b61022e848285016101cf565b91505092915050565b600073ffffffffffffffffffffffffffffffffffffffff82169050919050565b600061026282610237565b9050919050565b61027281610257565b811461027d57600080fd5b50565b60008135905061028f81610269565b92915050565b6000602082840312156102ab576102aa6101c0565b5b60006102b984828501610280565b91505092915050565b6102cb81610257565b82525050565b6000819050919050565b6000819050919050565b6000819050919050565b600061030a610305610300846102d1565b6102e5565b6102db565b9050919050565b61031a816102ef565b82525050565b600060608201905061033560008301866102c2565b61034260208301856102c2565b61034f6040830184610311565b949350505050565b60008115159050919050565b61036c81610357565b811461037757600080fd5b50565b60008151905061038981610363565b92915050565b6000602082840312156103a5576103a46101c0565b5b60006103b38482850161037a565b91505092915050565b600080fd5b6000823560016040038336030381126103dd576103dc6103bc565b5b80830191505092915050565b600082825260208201905092915050565b7f4b6565703a207369676e6572206973206e6f742076616c696400000000000000600082015250565b60006104306019836103e9565b915061043b826103fa565b602082019050919050565b6000602082019050818103600083015261045f81610423565b905091905056fea2646970667358221220506e6a64eb15b854c86b22784632b2c34c8b270339d7975428f3bbbf00052dad64736f6c6343000813003360806040523480156200001157600080fd5b50604051620019b2380380620019b28339818101604052810190620000379190620002c5565b6040518060400160405280600b81526020017f53616d706c6545524332300000000000000000000000000000000000000000008152506040518060400160405280600681526020017f53616d706c6500000000000000000000000000000000000000000000000000008152508160039081620000b4919062000571565b508060049081620000c6919062000571565b505050620000dd816103e8620000e460201b60201c565b5062000773565b600073ffffffffffffffffffffffffffffffffffffffff168273ffffffffffffffffffffffffffffffffffffffff160362000156576040517f08c379a00000000000000000000000000000000000000000000000000000000081526004016200014d90620006b9565b60405180910390fd5b6200016a600083836200025160201b60201c565b80600260008282546200017e91906200070a565b92505081905550806000808473ffffffffffffffffffffffffffffffffffffffff1673ffffffffffffffffffffffffffffffffffffffff168152602001908152602001600020600082825401925050819055508173ffffffffffffffffffffffffffffffffffffffff16600073ffffffffffffffffffffffffffffffffffffffff167fddf252ad1be2c89b69c2b068fc378daa952ba7f163c4a11628f55a4df523b3ef8360405162000231919062000756565b60405180910390a36200024d600083836200025660201b60201c565b5050565b505050565b505050565b600080fd5b600073ffffffffffffffffffffffffffffffffffffffff82169050919050565b60006200028d8262000260565b9050919050565b6200029f8162000280565b8114620002ab57600080fd5b50565b600081519050620002bf8162000294565b92915050565b600060208284031215620002de57620002dd6200025b565b5b6000620002ee84828501620002ae565b91505092915050565b600081519050919050565b7f4e487b7100000000000000000000000000000000000000000000000000000000600052604160045260246000fd5b7f4e487b7100000000000000000000000000000000000000000000000000000000600052602260045260246000fd5b600060028204905060018216806200037957607f821691505b6020821081036200038f576200038e62000331565b5b50919050565b60008190508160005260206000209050919050565b60006020601f8301049050919050565b600082821b905092915050565b600060088302620003f97fffffffffffffffffffffffffffffffffffffffffffffffffffffffffffffffff82620003ba565b620004058683620003ba565b95508019841693508086168417925050509392505050565b6000819050919050565b6000819050919050565b6000620004526200044c62000446846200041d565b62000427565b6200041d565b9050919050565b6000819050919050565b6200046e8362000431565b620004866200047d8262000459565b848454620003c7565b825550505050565b600090565b6200049d6200048e565b620004aa81848462000463565b505050565b5b81811015620004d257620004c660008262000493565b600181019050620004b0565b5050565b601f8211156200052157620004eb8162000395565b620004f684620003aa565b8101602085101562000506578190505b6200051e6200051585620003aa565b830182620004af565b50505b505050565b600082821c905092915050565b6000620005466000198460080262000526565b1980831691505092915050565b600062000561838362000533565b9150826002028217905092915050565b6200057c82620002f7565b67ffffffffffffffff81111562000598576200059762000302565b5b620005a4825462000360565b620005b1828285620004d6565b600060209050601f831160018114620005e95760008415620005d4578287015190505b620005e0858262000553565b86555062000650565b601f198416620005f98662000395565b60005b828110156200062357848901518255600182019150602085019450602081019050620005fc565b868310156200064357848901516200063f601f89168262000533565b8355505b6001600288020188555050505b505050505050565b600082825260208201905092915050565b7f45524332303a206d696e7420746f20746865207a65726f206164647265737300600082015250565b6000620006a1601f8362000658565b9150620006ae8262000669565b602082019050919050565b60006020820190508181036000830152620006d48162000692565b9050919050565b7f4e487b7100000000000000000000000000000000000000000000000000000000600052601160045260246000fd5b600062000717826200041d565b915062000724836200041d565b92508282019050808211156200073f576200073e620006db565b5b92915050565b62000750816200041d565b82525050565b60006020820190506200076d600083018462000745565b92915050565b61122f80620007836000396000f3fe608060405234801561001057600080fd5b50600436106100a95760003560e01c80633950935111610071578063395093511461016857806370a082311461019857806395d89b41146101c8578063a457c2d7146101e6578063a9059cbb14610216578063dd62ed3e14610246576100a9565b806306fdde03146100ae578063095ea7b3146100cc57806318160ddd146100fc57806323b872dd1461011a578063313ce5671461014a575b600080fd5b6100b6610276565b6040516100c39190610b0c565b60405180910390f35b6100e660048036038101906100e19190610bc7565b610308565b6040516100f39190610c22565b60405180910390f35b61010461032b565b6040516101119190610c4c565b60405180910390f35b610134600480360381019061012f9190610c67565b610335565b6040516101419190610c22565b60405180910390f35b610152610364565b60405161015f9190610cd6565b60405180910390f35b610182600480360381019061017d9190610bc7565b61036d565b60405161018f9190610c22565b60405180910390f35b6101b260048036038101906101ad9190610cf1565b6103a4565b6040516101bf9190610c4c565b60405180910390f35b6101d06103ec565b6040516101dd9190610b0c565b60405180910390f35b61020060048036038101906101fb9190610bc7565b61047e565b60405161020d9190610c22565b60405180910390f35b610230600480360381019061022b9190610bc7565b6104f5565b60405161023d9190610c22565b60405180910390f35b610260600480360381019061025b9190610d1e565b610518565b60405161026d9190610c4c565b60405180910390f35b60606003805461028590610d8d565b80601f01602080910402602001604051908101604052809291908181526020018280546102b190610d8d565b80156102fe5780601f106102d3576101008083540402835291602001916102fe565b820191906000526020600020905b8154815290600101906020018083116102e157829003601f168201915b5050505050905090565b60008061031361059f565b90506103208185856105a7565b600191505092915050565b6000600254905090565b60008061034061059f565b905061034d858285610770565b6103588585856107fc565b60019150509392505050565b60006012905090565b60008061037861059f565b905061039981858561038a8589610518565b6103949190610ded565b6105a7565b600191505092915050565b60008060008373ffffffffffffffffffffffffffffffffffffffff1673ffffffffffffffffffffffffffffffffffffffff168152602001908152602001600020549050919050565b6060600480546103fb90610d8d565b80601f016020809104026020016040519081016040528092919081815260200182805461042790610d8d565b80156104745780601f1061044957610100808354040283529160200191610474565b820191906000526020600020905b81548152906001019060200180831161045757829003601f168201915b5050505050905090565b60008061048961059f565b905060006104978286610518565b9050838110156104dc576040517f08c379a00000000000000000000000000000000000000000000000000000000081526004016104d390610e93565b60405180910390fd5b6104e982868684036105a7565b60019250505092915050565b60008061050061059f565b905061050d8185856107fc565b600191505092915050565b6000600160008473ffffffffffffffffffffffffffffffffffffffff1673ffffffffffffffffffffffffffffffffffffffff16815260200190815260200160002060008373ffffffffffffffffffffffffffffffffffffffff1673ffffffffffffffffffffffffffffffffffffffff16815260200190815260200160002054905092915050565b600033905090565b600073ffffffffffffffffffffffffffffffffffffffff168373ffffffffffffffffffffffffffffffffffffffff1603610616576040517f08c379a000000000000000000000000000000000000000000000000000000000815260040161060d90610f25565b60405180910390fd5b600073ffffffffffffffffffffffffffffffffffffffff168273ffffffffffffffffffffffffffffffffffffffff1603610685576040517f08c379a000000000000000000000000000000000000000000000000000000000815260040161067c90610fb7565b60405180910390fd5b80600160008573ffffffffffffffffffffffffffffffffffffffff1673ffffffffffffffffffffffffffffffffffffffff16815260200190815260200160002060008473ffffffffffffffffffffffffffffffffffffffff1673ffffffffffffffffffffffffffffffffffffffff168152602001908152602001600020819055508173ffffffffffffffffffffffffffffffffffffffff168373ffffffffffffffffffffffffffffffffffffffff167f8c5be1e5ebec7d5bd14f71427d1e84f3dd0314c0f7b2291e5b200ac8c7c3b925836040516107639190610c4c565b60405180910390a3505050565b600061077c8484610518565b90507fffffffffffffffffffffffffffffffffffffffffffffffffffffffffffffffff81146107f657818110156107e8576040517f08c379a00000000000000000000000000000000000000000000000000000000081526004016107df90611023565b60405180910390fd5b6107f584848484036105a7565b5b50505050565b600073ffffffffffffffffffffffffffffffffffffffff168373ffffffffffffffffffffffffffffffffffffffff160361086b576040517f08c379a0000000000000000000000000000000000000000000000000000000008152600401610862906110b5565b60405180910390fd5b600073ffffffffffffffffffffffffffffffffffffffff168273ffffffffffffffffffffffffffffffffffffffff16036108da576040517f08c379a00000000000000000000000000000000000000000000000000000000081526004016108d190611147565b60405180910390fd5b6108e5838383610a72565b60008060008573ffffffffffffffffffffffffffffffffffffffff1673ffffffffffffffffffffffffffffffffffffffff1681526020019081526020016000205490508181101561096b576040517f08c379a0000000000000000000000000000000000000000000000000000000008152600401610962906111d9565b60405180910390fd5b8181036000808673ffffffffffffffffffffffffffffffffffffffff1673ffffffffffffffffffffffffffffffffffffffff16815260200190815260200160002081905550816000808573ffffffffffffffffffffffffffffffffffffffff1673ffffffffffffffffffffffffffffffffffffffff168152602001908152602001600020600082825401925050819055508273ffffffffffffffffffffffffffffffffffffffff168473ffffffffffffffffffffffffffffffffffffffff167fddf252ad1be2c89b69c2b068fc378daa952ba7f163c4a11628f55a4df523b3ef84604051610a599190610c4c565b60405180910390a3610a6c848484610a77565b50505050565b505050565b505050565b600081519050919050565b600082825260208201905092915050565b60005b83811015610ab6578082015181840152602081019050610a9b565b60008484015250505050565b6000601f19601f8301169050919050565b6000610ade82610a7c565b610ae88185610a87565b9350610af8818560208601610a98565b610b0181610ac2565b840191505092915050565b60006020820190508181036000830152610b268184610ad3565b905092915050565b600080fd5b600073ffffffffffffffffffffffffffffffffffffffff82169050919050565b6000610b5e82610b33565b9050919050565b610b6e81610b53565b8114610b7957600080fd5b50565b600081359050610b8b81610b65565b92915050565b6000819050919050565b610ba481610b91565b8114610baf57600080fd5b50565b600081359050610bc181610b9b565b92915050565b60008060408385031215610bde57610bdd610b2e565b5b6000610bec85828601610b7c565b9250506020610bfd85828601610bb2565b9150509250929050565b60008115159050919050565b610c1c81610c07565b82525050565b6000602082019050610c376000830184610c13565b92915050565b610c4681610b91565b82525050565b6000602082019050610c616000830184610c3d565b92915050565b600080600060608486031215610c8057610c7f610b2e565b5b6000610c8e86828701610b7c565b9350506020610c9f86828701610b7c565b9250506040610cb086828701610bb2565b9150509250925092565b600060ff82169050919050565b610cd081610cba565b82525050565b6000602082019050610ceb6000830184610cc7565b92915050565b600060208284031215610d0757610d06610b2e565b5b6000610d1584828501610b7c565b91505092915050565b60008060408385031215610d3557610d34610b2e565b5b6000610d4385828601610b7c565b9250506020610d5485828601610b7c565b9150509250929050565b7f4e487b7100000000000000000000000000000000000000000000000000000000600052602260045260246000fd5b60006002820490506001821680610da557607f821691505b602082108103610db857610db7610d5e565b5b50919050565b7f4e487b7100000000000000000000000000000000000000000000000000000000600052601160045260246000fd5b6000610df882610b91565b9150610e0383610b91565b9250828201905080821115610e1b57610e1a610dbe565b5b92915050565b7f45524332303a2064656372656173656420616c6c6f77616e63652062656c6f7760008201527f207a65726f000000000000000000000000000000000000000000000000000000602082015250565b6000610e7d602583610a87565b9150610e8882610e21565b604082019050919050565b60006020820190508181036000830152610eac81610e70565b9050919050565b7f45524332303a20617070726f76652066726f6d20746865207a65726f2061646460008201527f7265737300000000000000000000000000000000000000000000000000000000602082015250565b6000610f0f602483610a87565b9150610f1a82610eb3565b604082019050919050565b60006020820190508181036000830152610f3e81610f02565b9050919050565b7f45524332303a20617070726f766520746f20746865207a65726f20616464726560008201527f7373000000000000000000000000000000000000000000000000000000000000602082015250565b6000610fa1602283610a87565b9150610fac82610f45565b604082019050919050565b60006020820190508181036000830152610fd081610f94565b9050919050565b7f45524332303a20696e73756666696369656e7420616c6c6f77616e6365000000600082015250565b600061100d601d83610a87565b915061101882610fd7565b602082019050919050565b6000602082019050818103600083015261103c81611000565b9050919050565b7f45524332303a207472616e736665722066726f6d20746865207a65726f20616460008201527f6472657373000000000000000000000000000000000000000000000000000000602082015250565b600061109f602583610a87565b91506110aa82611043565b604082019050919050565b600060208201905081810360008301526110ce81611092565b9050919050565b7f45524332303a207472616e7366657220746f20746865207a65726f206164647260008201527f6573730000000000000000000000000000000000000000000000000000000000602082015250565b6000611131602383610a87565b915061113c826110d5565b604082019050919050565b6000602082019050818103600083015261116081611124565b9050919050565b7f45524332303a207472616e7366657220616d6f756e742065786365656473206260008201527f616c616e63650000000000000000000000000000000000000000000000000000602082015250565b60006111c3602683610a87565b91506111ce82611167565b604082019050919050565b600060208201905081810360008301526111f2816111b6565b905091905056fea2646970667358221220481f270aa82128cced3d3d77e955ed7cad2f8851e0922982dd29ca34ee382ecf64736f6c63430008130033",
  "linkReferences": {},
  "deployedLinkReferences": {}
}